:4000000080673030303030307e3030307e3030307e3030307e3030307e3030307e3030307e3030307e3030307e3030307e3030307e3030307e3030307e3030307e303030f5
:4000400030303030303030303030303030303030303030303030303030303030303030307e3030307e303030711062e38770ef62e33841fefb50104e62e33855fa014f5bdc
:40008000010353f955f83a500600711051f960e851f860ea70ef55f80055f900711062e00270ef62e338627105627505627905627d057c02ab500055030c3c030ca0053f4e
:4000c000038ff8500157e65503003c0300a00b08283f03187509008ff2711070ef62e000711062e00370ef62e2007c09218fff50087f3030303030303030303030303030e7
:4001000030303030303030303030303030303030303030303030303030303030303030303030303030303030303030303030303030303030303030303030303030303030bf
:40014000303030303030303030303030303030304779726f736b6f6f70706900457465656e212020202020005461616b736521202020200053454953212020202020200018
:400180004f696b65616c6c6521202000566173656d6d616c6c6521006028660063056500e600e700d600b000b100b200b333b433b500b600b855b900ba10bb33bc33bd00bd
:4001c000be00ff61006900600062006733683363006600d100d300d000d200e1ffe200dfffde02dd00ff70ef62000071106200c862013770ef6203376202007110620200cc
:4002000062030070ef62010062040071106204046205fb70ef6207f8620600711062060062070070ef620500620800711062087f62098070ef620b80620a007110620a0040
:40024000620b0070ef620900620c007110620c00620d0070ef620f00620e007110620e00620f0070ef620d00621000711062100062110070ef6213006212007110621200f6
:4002800062130070ef621100621400711062140062150070ef621700621600711062160062170070ef62150070ef7f5504005505005507045508fb5509f8550600550a7fa3
:4002c000550b807c02ca7c01e67f1070ef500067500157987c02e5500167500157c37c02e570ef207f380210084f56fc00d00456fc01182070ef62e30010082839ffa01f7a
:400300004f48fc01a003711054fd18207509001008284f59fd610018207509008fd738fc7f081028b00420187f903c201875dff2748fef303132333435363738394142432f
:400340004445460867676767210fffe7901918210fffe090127f4b9fea5b9fe77f5200a0069004758ff87f905f0867676767210f903818210f40404090307f904b08676745
:400380006767210f900918210f40404090017f082606805106600818210f29102a066008530640218f530660087f082606802e06205106600818210f29302a066008530620
:4003c0004021af530660087f0826068051066008260af0510a7110600870ef2e064051066008401057ff2e06505106600840405d08082606c0510660084040402e0650512e
:4004000006600840402606c051066008182108a00479bfd3202e0a7f510a7110600870ef187f260a802e0a7f260b80510a71106008510b600970ef50fa906350fa905f50dc
:40044000039f4c5052905750039f44905f905d905b50039f3a505a904550029f32505a903d50089f16505a903550019f0e505a902d50069f06500e9f02502c9efe50089eda
:40048000fa500c9ef650039ef2505a90117f80c094d4210310fff74f03ff209ede7f900c78bffc7f08193a7c010101010871105de070ef21073905d006ffe978bffe187f29
:4004c0001059009fcd203dfe00b005500080113dfe06d00752fe15fe8006500617fe059e867bffbfe27f4f1052fd59fc9fa4203dfa00b005500080113dfa06d00752fa155f
:40050000fa8006500617fa059e5d7bfbbfe27f210308ff7a03009e633dfe00b005502080133dfe09d00952fe7856fe00800617fe0850079e3218787bffbfd77f4f52fd21c1
:400540000308ff4a03fc9e333dfa00b005502080133dfa09d00952fa7856fa00800617fa0850079e0218787bfbbfd77f4f080850409e0856000156010852003b01d005508c
:4005800000800350ff9de07b01bfef77003d0009bfe51818500c9de37f0010181c1e1f1f001008040201004f3803540250409dcb56000056010852003d0200b005ffda80eb
:4005c00003ffdd9da27b01bfee77003d0007bfe438fd500c9da57f2e08032607fc2609fc510960077110510860055107600470ef2605fc510560047f7f4f52fd64290155fc
:400600000c0048f901b00591ae80039177470c01a0202e0c10107bfab004260cef9249201052fc0820510d54002077fc48faffbfe548f902b00392b65000470c01a00350b5
:40064000017f642901550c0048fd01b005916880039131470c01a01e2e0c10107bfeb004260cef920320105900510d540020770048feffbfe748fd02b00392725000470c25
:4006800001a00350017f4f52fd64550c0048f901b0059123800390ec550e00470c01a01a1052fc08205200530d913620470c01a00e760e77fc7bfabfe848f902b003922e5e
:4006c000510e7f64550c0048fd01b00590e9800390b2550e00470c01a0181059005200530d90fe20470c01a00e760e77007bfebfea48fd02b00391f6510e7f4f52fd645511
:400700000c0048f901b00590ae80039077550e00470c01a01d1052fb59fc28530d90c220470c01a012760e77fcd00377fb7bfabfe548f902b00391b6510e7f64550c00484b
:40074000fd01b00590718003903a550e00470c01a01d1052ff590028530d908520470c01a012760e7700d00377ff7bfebfe548fd02b0039179510e7f6479d00490067f2955
:400780000190017f0871102e07012607fd51076004500c91882607fe5107600470ef490401affc500c917618900d7f6479d00490067f290190017f7110082e0702510760c0
:4007c00004500591581870ef530d71102e07015107600470ef5002914490067f530d90017f550f087a0f71102e07015107600470ef6b0d7110c00a2e07025107600480085d
:400800002607fd51076004500591122607fe5107600470ef490401affc500591003c0f00bfc390017f71102e0701510760042607fd51076004500c90e42607fe51076004c8
:4008400070ef490401affc260cfe490402b0042e0c01500590c7510c21017f550c0021ffa0072e0c1090017f550f087a0f6b0d71102e070151076004500590a12607fe51a4
:4008800007600470ef490401affc5002908f260dfe490402a0042e0d013c0f00bfce90017f71102e07015107600470ef470c107110a00a2e07025107600480082607fd5166
:4008c000076004500290562607fe5107600470ef490401affc5005904471102e0701510760042607fd5107600470ef510d7f71102e070351076004500c90222607fe510752
:40090000600470ef490401affc7110500c900e2607fd510760045005900370ef7f78bffe7f104f38595502505503015a01105500005103580208283f011875090076003c0a
:40094000000cbff22055025c5503015a0106011d105500005103580208283f011875090076003c000cbff2205502685503015a01060129105500005103580208283f011829
:4009800075090076003c000cbff2205502745503015a01060135105500005103580208283f011875090076003c000cbff2205502805503015a0106014110550000510358e3
:4009c0000208283f011875090076003c000cbff22055028c5503015a0106014d105500005103580208283f011875090076003c000cbff27c0422570350007c04922010510e
:400a0000037c035d7c05d72010500008500f085a0206020d51030851020850d1087c05f938fb20540c107c08ee208fff38a7208fff30303030303030303030303030303085
:400a40003030303030303030303030303030303030303030303030303030303030303030303030303030303030303030303030303030303030303030303030303030303076
:400a80003030303030303030303030303030303030303030303030303030303030303030303030303030303030303030303030303030303030303030303030303030303036
:400ac00030303030303030303030303030303030303030303030303030303030303030303030303030303030303030303030303030303030303030303030303030303030f6
:400b000030303030303030303030303030303030303030303030303030303030303030303030303030303030303030303030303030303030303030303030303030303030b5
:020000040010ea
:020000040020da
:02000000334289
:00000001ff
