:4000000080673030303030307e3030307e3030307e3030307e3030307e3030307e3030307e3030307e3030307e3030307e3030307e3030307e3030307e3030307e303030f5
:4000400030303030303030303030303030303030303030303030303030303030303030307e3030307e303030711062e38770ef62e33841fefb50104e62e33855fa014f5bdc
:40008000010353f955f83a500600711051f960e851f860ea70ef55f80055f900711062e00270ef62e338627105627505627905627d057c02da500055030c3c030ca0053f1f
:4000c000038ff8500257155503003c0300a00b08283f03187509008ff2711070ef62e000711062e00370ef62e2007c0a9e8fff50087f303030303030303030303030303039
:4001000030303030303030303030303030303030303030303030303030303030303030303030303030303030303030303030303030303030303030303030303030303030bf
:40014000303030303030303030303030303030304779726f736b6f6f70706900457465656e212020202020005461616b736521202020200053454953212020202020200018
:400180004f696b65616c6c6521202000566173656d6d616c6c652100500052454144204441544100532c41442b5200524100532c41442b57002020202020202020202020f0
:4001c000202020202020006028660063056500e600e700d600b000b100b200b333b433b500b600b855b900ba10bb33bc33bd00be00ff61006900600062006733683363008b
:400200006600d100d300d000d200e1ffe200dfffde02dd00ff70ef62000071106200c862013770ef620337620200711062020062030070ef62010062040071106204046292
:4002400005fb70ef6207f8620600711062060062070070ef620500620800711062087f62098070ef620b80620a007110620a00620b0070ef620900620c007110620c0062e4
:400280000d0070ef620f00620e007110620e00620f0070ef620d00621000711062100062110070ef621300621200711062120062130070ef62110062140071106214006296
:4002c000150070ef621700621600711062160062170070ef62150070ef7f5504005505005507045508fb5509f8550600550a7f550b807c02f97c02157f1070ef500067509a
:400300000157c77c0314500167500157f27c031470ef207f380210084f56fc00d00456fc01182070ef62e30010082839ffa01f4f48fc01a003711054fd1820750900100824
:40034000284f59fd610018207509008fd738fc7f081028b00420187f903c201875dff2748fef303132333435363738394142434445460867676767210fffe7901918210f4c
:40038000ffe090127f4b9fea5b9fe77f5200a0069004758ff87f905f0867676767210f903818210f40404090307f904b0867676767210f900918210f40404090017f0826a2
:4003c00006805106600818210f29102a066008530640218f530660087f082606802e06205106600818210f29302a06600853064021af530660087f082606805106600826d4
:400400000af0510a7110600870ef2e064051066008401057ff2e06505106600840405d08082606c0510660084040402e06505106600840402606c051066008182108a00458
:4004400079bfd3202e0a7f510a7110600870ef187f260a802e0a7f260b80510a71106008510b600970ef50fa906350fa905f50039f4c5052905750039f44905f905d905ba6
:4004800050039f3a505a904550029f32505a903d50089f16505a903550019f0e505a902d50069f06500e9f02502c9efe50089efa500c9ef650039ef2505a90117f80c094a3
:4004c000d4210310fff74f03ff209ede7f900c78bffc7f08193a7c010101010871105de070ef21073905d006ffe978bffe187f1059009fcd203dfe00b005500080113dfe53
:4005000006d00752fe15fe8006500617fe059e867bffbfe27f4f1052fd59fc9fa4203dfa00b005500080113dfa06d00752fa15fa8006500617fa059e5d7bfbbfe27f21037e
:4005400008ff7a03009e633dfe00b005502080133dfe09d00952fe7856fe00800617fe0850079e3218787bffbfd77f4f52fd210308ff4a03fc9e333dfa00b005502080130f
:400580003dfa09d00952fa7856fa00800617fa0850079e0218787bfbbfd77f4f080850409e0856000156010852003b01d0055000800350ff9de07b01bfef77003d0009bf6a
:4005c000e51818500c9de37f0010181c1e1f1f001008040201004f3803540250409dcb56000056010852003d0200b005ffda8003ffdd9da27b01bfee77003d0007bfe438c3
:40060000fd500c9da57f2e08032607fc2609fc510960077110510860055107600470ef2605fc510560047f7f4f52fd642901550c0048f901b00591ae80039177470c01a0d7
:40064000202e0c10107bfab004260cef9249201052fc0820510d54002077fc48faffbfe548f902b00392b65000470c01a00350017f642901550c0048fd01b0059168800350
:400680009131470c01a01e2e0c10107bfeb004260cef920320105900510d540020770048feffbfe748fd02b00392725000470c01a00350017f4f52fd64550c0048f901b002
:4006c000059123800390ec550e00470c01a01a1052fc08205200530d913620470c01a00e760e77fc7bfabfe848f902b003922e510e7f64550c0048fd01b00590e9800390bd
:40070000b2550e00470c01a0181059005200530d90fe20470c01a00e760e77007bfebfea48fd02b00391f6510e7f4f52fd64550c0048f901b00590ae80039077550e004785
:400740000c01a01d1052fb59fc28530d90c220470c01a012760e77fcd00377fb7bfabfe548f902b00391b6510e7f64550c0048fd01b00590718003903a550e00470c01a028
:400780001d1052ff590028530d908520470c01a012760e7700d00377ff7bfebfe548fd02b0039179510e7f6479d00490067f290190017f0871102e07012607fd51076004b7
:4007c000500c91882607fe5107600470ef490401affc500c917618900d7f6479d00490067f290190017f7110082e070251076004500591581870ef530d71102e070151070e
:40080000600470ef5002914490067f530d90017f550f087a0f71102e07015107600470ef6b0d7110c00a2e07025107600480082607fd51076004500591122607fe51076083
:400840000470ef490401affc500591003c0f00bfc390017f71102e0701510760042607fd51076004500c90e42607fe5107600470ef490401affc260cfe490402b0042e0c84
:4008800001500590c7510c21017f550c0021ffa0072e0c1090017f550f087a0f6b0d71102e070151076004500590a12607fe5107600470ef490401affc5002908f260dfec4
:4008c000490402a0042e0d013c0f00bfce90017f71102e07015107600470ef470c107110a00a2e07025107600480082607fd51076004500290562607fe5107600470ef4959
:400900000401affc5005904471102e0701510760042607fd5107600470ef510d7f71102e070351076004500c90222607fe5107600470ef490401affc7110500c900e2607df
:40094000fd510760045005900370ef7f78bffe7f104f380210500057007c04c150010850b55c187c0350500057007c04c150010850ae5c187c0350201050000852fc207c1e
:4009800007da500057007c04c150010850b55c187c0350500057007c04c150010850ab5c187c03502052fa107c080b500057007c04c150010850b55c187c03505000570013
:4009c0007c04c150010850a45c187c0350201050010852fc207c07a7500057007c04c150010850b55c187c0350500057007c04c1500108509a5c187c035020560100560041
:400a00000080191050017c088a205303520103f6530151033f0177010f0000520113f852f731805300520031801a00cfd71050007c088a20530352f803f6530151033f0100
:400a400010500057007c04c150010850b55c187c0350500057007c04c150010850985c187c03507c091d570050017c04c1205601005600008013520103f653023e02107c19
:400a800003722077010f000052f8130152003180530052f731801a00dfdd38fe207f104f386f5502505503015a01105500005103580208283f011875090076003c000cbfca
:400ac000f22055025c5503015a0106011c105500005103580208283f011875090076003c000cbff2205502685503015a01060128105500005103580208283f0118750900f7
:400b000076003c000cbff2205502745503015a01060134105500005103580208283f011875090076003c000cbff2205502805503015a0106014010550000510358020828af
:400b40003f011875090076003c000cbff22055028c5503015a0106014c105500005103580208283f011875090076003c000cbff27c0451570350007c04c1201051037c03df
:400b80008c205a0206020c51030851020850000850010850000808085048089db338f810500057007c04c150010850b55c187c0350208fff3891208fff303030303030301b
:400bc00030303030303030303030303030303030303030303030303030303030303030303030303030303030303030303030303030303030303030303030303030303030f5
:400c000030303030303030303030303030303030303030303030303030303030303030303030303030303030303030303030303030303030303030303030303030303030b4
:400c40003030303030303030303030303030303030303030303030303030303030303030303030303030303030303030303030303030303030303030303030303030303074
:400c80003030303030303030303030303030303030303030303030303030303030303030303030303030303030303030303030303030303030303030303030303030303034
:020000040010ea
:020000040020da
:0200000048feb8
:00000001ff
